:020000040800F2
:10000000486600205103000849310008CB2E000843
:10001000453100084F070008E938000800000000DB
:100020000000000000000000000000009102000835
:100030004B09000800000000ED02000871310008C3
:100040006B0300086B0300086B0300086B030008D8
:100050006B0300086B0300086B0300086B030008C8
:100060006B0300086B0300086B0300086B030008B8
:100070006B0300086B0300086B0300086B030008A8
:1000800021080008310800086B0300086B03000812
:1000900055070008650700086B0300086B0300089C
:1000A0006B0300086B0300086B0300086B03000878
:1000B0006B0300086B0300086B0300086B03000868
:1000C0006B0300086B0300086B0300086B03000858
:1000D0006B0300086B030008D93800086B030008A5
:1000E0006B0300086B0300086B0300086B03000838
:1000F0006B0300089D3100086B0300086B030008C8
:100100006B0300086B0300086B0300086B03000817
:100110006B0300086B0300086B0300086B03000807
:100120006B0300086B0300086B0300086B030008F7
:100130006B0300086B0300086B0300086B030008E7
:100140006B0300086B0300086B0300086B030008D7
:100150006B0300086B0300086B0300086B030008C7
:100160006B0300086B0300086B0300086B030008B7
:100170006B0300086B0300086B030008000000001D
:100180006B0300086B0300086B0300086B03000897
:100190006B0300086B0300086B0300086B03000887
:1001A00000000000000000006B03000800F002F8EF
:1001B00000F05EF80AA090E8000C82448344AAF1A3
:1001C0000107DA4501D100F053F8AFF2090EBAE8A1
:1001D0000F0013F0010F18BFFB1A43F0010318477B
:1001E0000C7600002C7600000A444FF0000C10F84A
:1001F000013B13F0070408BF10F8014B1D1108BFA5
:1002000010F8015B641E05D010F8016B641E01F844
:10021000016BF9D113F0080F1EBF10F8014BAD1C94
:100220000C1B09D16D1E58BF01F801CBFAD505E0B2
:1002300014F8016B01F8016B6D1EF9D59142D6D30C
:10024000704700000023002400250026103A28BF34
:1002500078C1FBD8520728BF30C148BF0B60704738
:100260001FB507F0DEF900F0C3F91FBD10B510BDD2
:1002700000F038FA1146FFF7F3FF05F06FF900F0D0
:1002800056FA03B4FFF7F2FF03BC00F059FA00007E
:100290002C4B19680868B0E8F04F80F30988BFF369
:1002A0006F8F4FF0000080F311887047000000004E
:1002B00008480068006880F308884FF0000080F369
:1002C000148862B661B6BFF34F8FBFF36F8F00DF44
:1002D00000BF00BF08ED00E0DFF80C00016841F44A
:1002E00070010160704700BF88ED00E0EFF3098006
:1002F000BFF36F8F134B1A681EF0100F08BF20ED6D
:10030000108A20E9F04F106009B44FF0500080F3DC
:100310001188BFF34F8FBFF36F8F06F059FA4FF07C
:10032000000080F3118809BC19680868B0E8F04F34
:100330001EF0100F08BFB0EC108A80F30988BFF3DD
:100340006F8F7047C0010020EFF3058070470000F9
:100350000948804709480047FEE7FEE7FEE7FEE759
:10036000FEE7FEE7FEE7FEE7FEE7FEE70448054995
:10037000054A064B7047000089310008AD010008AE
:100380004860002048660020486200204862002043
:1003900053EA020C00F069802DE9F04B4FF00006A3
:1003A000002B1FBFB3FA83F503FA05F424FA05F610
:1003B0005E4012BF1643B2FA82F502FA05F4C5F1A7
:1003C00020051EBF22FA05FC44EA0C04203556EA3B
:1003D000044C4FEA144418BF641C4FF000084FF05F
:1003E0000009904271EB030C39D3002919BFB1FA0F
:1003F00081F701FA07F6B0FA80F700FA07F6C7F1BD
:1004000020071EBF20FA07FC46EA0C062037B6FB81
:10041000F4FCA7EB0507103F07F01F0BCBF12006FC
:100420000CFA0BFB2CFA06F644BFB3460026202F2D
:10043000A4BF5E464FF0000B5BEA060C08BF4FF00E
:10044000010B19EB0B09ABFB027C48EB0608C01B48
:1004500006FB02CC0BFB03CC71EB0C01C1E70B4696
:10046000024641464846BDE8F08B13B54FF0000008
:100470004FF00001AFF30080BDE81C407047032A35
:1004800040F2308010F0030C00F0158011F8013BB1
:10049000BCF1020F624498BF11F801CB00F8013B98
:1004A00038BF11F8013BA2F1040298BF00F801CB5C
:1004B00038BF00F8013B11F0030300F0B680083AA2
:1004C000C0F0088051F8043B083A51F804CBA0E88A
:1004D0000810F5E7121D5CBF51F8043B40F8043BDF
:1004E000AFF30080D20724BF11F8013B11F801CB14
:1004F00048BF11F8012B24BF00F8013B00F801CBE5
:1005000048BF00F8012B704702F0FF0343EA0322C3
:1005100042EA024200F0BDB84FF0000200B51346B7
:1005200094469646203922BFA0E80C50A0E80C5013
:10053000B1F12001BFF4F7AF090728BFA0E80C50C4
:1005400048BF0CC05DF804EB890028BF40F8042BBD
:1005500008BF704748BF20F8022B11F0804F18BF2A
:1005600000F8012B704700004FF0013C50F8042BBD
:1005700051F8043B9A4221D1A2EB0C03934313EAB6
:10058000CC1317D150F8042B51F8043B9A4215D1E3
:10059000A2EB0C03934313EACC130BD150F8042BBA
:1005A00051F8043B9A4209D1A2EB0C03934313EA9E
:1005B000CC13DBD04FF00000704700BFD01A01BA57
:1005C000B1FA81F101F0180122FA01F0CB40C1F13A
:1005D0002001DBB2C0B2C01A2CFA01F3D11A914348
:1005E00011EAC311E6D170477047704770470000A9
:1005F00070B5064C7C44064D7D4403E020682044E1
:100600008047241DAC42F9D170BD00001472000077
:100610001C72000010B500F05DF8006810BD10B548
:10062000044600F057F8046010BD10B5203AC0F041
:100630000B80B1E81850203AA0E81850B1E81850E3
:10064000A0E81850BFF4F5AF5FEA027C24BFB1E820
:100650001850A0E8185044BF18C918C0BDE8104091
:100660005FEA827C24BF51F8043B40F8043B08BF9A
:100670007047D20728BF31F8023B48BF11F8012B61
:1006800028BF20F8023B48BF00F8012B70474FF00D
:1006900000020429C0F0128010F0030C3FF43EAFBA
:1006A000CCF1040CBCF1020F18BF00F8012BA8BF5D
:1006B00020F8022BA1EB0C01FFF730BF5FEAC17CF1
:1006C00024BF00F8012B00F8012B48BF00F8012BD4
:1006D0007047000000487047E45F00200048704702
:1006E000E45F00207546FFF7F9FFAE460500694656
:1006F000534620F00700854618B020B5FFF736FEB8
:10070000BDE820404FF000064FF000074FF0000812
:100710004FF0000B21F00701AC46ACE8C009ACE893
:10072000C009ACE8C009ACE8C0098D46704710B5F7
:100730000446AFF300802046BDE81040FFF7A1BD9E
:1007400001491820ABBEFEE726000200704700BF3B
:10075000FEE7000010B5024800F0FBFA10BD0000F3
:100760007C03002010B5024800F0F3FA10BD000031
:100770007C03002010B504462146024803F0A0FC8B
:1007800010BD0000805E002000BFB1EE040A0648E4
:1007900003F092FC044803F005FD03F015FA012074
:1007A00004F02EFFF1E70000805E002010B500216C
:1007B0009FED125ADFED114A9FED104ADFED0F3A1F
:1007C0009FED0F3ADFED0F2A9FED0E2ADFED0B1A9A
:1007D0009FED0A1ADFED0C0A9FED0C0A0C4804F09D
:1007E0008DFADFED0C0A9FED0C0A022301220B4962
:1007F0000748503803F06EFD10BD000000000000F7
:100800006F12833A00401C4500803B45000096442F
:10081000D05E0020000080462CA099417C0300207F
:1008200010B5024800F0C8FD10BD0000EC03002028
:1008300010B5024800F0C0FD10BD00004C040020BF
:100840000146087810381823B0FBF3F20848805CA2
:10085000C865032A05D908686FF30900001D88657B
:1008600003E008686FF309008865886D7047000031
:1008700074760008014600208A6A8B69CBB932B1D0
:10088000012A0DD0022A03D0032A10D10EE000BFA6
:10089000CB6A03F08073B3F1807F00D1012007E0C1
:1008A000CB6AB3F1C07F00D1012001E000E000BFBE
:1008B00034E08B69B3F5005F1AD132B1012A07D059
:1008C000022A03D0032A11D10AE000BF01200EE062
:1008D000CB6A03F08073B3F1807F00D1012006E082
:1008E000CB6AB3F1C07F00D1012000E000BF15E06A
:1008F00032B1012A05D0022A04D0032A0CD103E028
:1009000000BF00BF012008E0CB6A03F08073B3F1A1
:10091000807F00D1012000E000BF00BF704730B5EC
:100920000468246824F4802405682C6004686360EB
:100930008468402C04D10468A2600468E16003E08C
:100940000468A1600468E26030BD704772B600BF01
:10095000FEE7F0B504460D461E4694F82070206868
:100960008368A86800B900E000BF012F01D0022F02
:100970007DD103F0806030B903F0006018B903F056
:10098000805000287ED0C3F3016101208840306090
:10099000A86860B9B5F800C0E86840EA4C5C206817
:1009A00000F5C07000EB0110C0F800C00FE0D5E901
:1009B00001C040EACC00D5F80CC040EA0C00D4F8E5
:1009C00000C00CF5C07C0CEB011CCCF80000D5F885
:1009D00010C0206800F5C07000EB0110C0F804C022
:1009E000287D01280ED1206800F5C07000EB0110B1
:1009F000406840F4807C206800F5C07000EB011076
:100A0000C0F804C0D079000692F806C040EA0C4055
:100A100092F805C040EA0C2092F804C040EA0C00AD
:100A2000D4F800C00CF5C07C0CEB011CCCF80C0019
:100A3000D078000692F802C040EA0C4092F801C05B
:100A400040EA0C2092F800C040EA0C00D4F800C044
:100A50000CF5C07C0CEB011CCCF80800206800F5FC
:100A6000C07000EB0110006840F0010C01E00FE0E5
:100A700008E0206800F5C07000EB0110C0F800C06D
:100A80000020F0BD606A40F4001060620120F8E7C9
:100A9000606A40F4802060620120F2E7F0B504460D
:100AA0000A4694F82050012D01D0022D7ED14249F2
:100AB00001F50071086840F001000860086820F442
:100AC0007C5008600868566A40EA06200860107D7D
:100AD00000F01F06012000FA06F3C8699843C861B8
:100AE000A1F50071D069C8B9D1F80C029843C1F8DA
:100AF0000C02908880B2968940EA064601F5107093
:100B0000576940F83760108880B2168940EA064677
:100B100001F51070576900EBC7004660D0690128E5
:100B200019D1D1F80C021843C1F80C02908880B298
:100B3000168840EA064601F51070576940F837609C
:100B4000908980B2168940EA064601F5107057690F
:100B500000EBC7004660906928B9D1F804029843B9
:100B6000C1F8040204E0D1F804021843C1F80402F9
:100B7000106928B9D1F814029843C1F8140204E0AE
:100B8000D1F814021843C1F81402106A012804D1E4
:100B9000D1F81C021843C1F81C02D1F8000220F061
:100BA0000100C1F800020020F0BDFFE7606A40F4D8
:100BB000802060620120F7E700640040704770B554
:100BC000044694F82050012D01D0022D7DD151B959
:100BD0002068C06800F0030080B9606A40F400102B
:100BE0006062012070BD2068006900F0030028B930
:100BF000606A40F4001060620120F3E7206800F5AD
:100C0000D87000EB0110006800F00400906090685C
:100C100040B9206800F5D87000EB01100068400D65
:100C2000106007E0206800F5D87000EB0110006844
:100C3000C0085060206800F5D87000EB0110006813
:100C400000F00200D060206800F5D87000EB0110C1
:100C5000406800F00F00082802D30820106108E067
:100C6000206800F5D87000EB0110406800F00F001C
:100C70001061206800F5D87000EB0110406800F4A6
:100C80007F40000A9061206800F5D87000EB0110E9
:100C90004068000C5061206800F5D87000EB01102E
:100CA00080681870206800F5D87000EB011080682B
:100CB00000F47F40000A5870206800F5D87000EBFF
:100CC0000110806800F47F0000E03CE0000C9870A8
:100CD000206800F5D87000EB01108068000ED87015
:100CE000206800F5D87000EB0110C068187120680A
:100CF00000F5D87000EB0110C06800F47F40000AD6
:100D00005871206800F5D87000EB0110C06800F43D
:100D10007F00000C9871206800F5D87000EB01107E
:100D2000C068000ED87131B92068C06840F020005A
:100D30002668F06005E02068006940F02000266821
:100D4000306100204EE7606A40F48020606201203C
:100D500048E72DE9F05F04460025206846692068D1
:100D6000D0F80490206887682068D0F80CA020682C
:100D7000D0F810B02068D0F8188006F001000028E4
:100D800055D007F00100C0B101202168886007F04C
:100D9000020018B1204600F09EFA0EE007F00400B1
:100DA00010B145F4006508E007F0080010B145F403
:100DB000805502E0204600F08DFA07F48070C8B13B
:100DC0004FF480702168886007F4007018B12046E5
:100DD00000F083FA0EE007F4806010B145F400558E
:100DE00008E007F4006010B145F4804502E02046B9
:100DF00000F072FA07F48030C8B14FF480302168F7
:100E0000886007F4003018B1204600F068FA0EE060
:100E100007F4802010B145F4004508E007F40020F5
:100E200010B145F4803502E0204600F057FA06F094
:100E3000080038B10AF0100020B145F40075102008
:100E40002168C86006F0040040B10AF0080028B12B
:100E500008202168C860204600F0B0F906F00200C2
:100E600038B12068C06800F0030010B1204600F0DF
:100E7000A7F906F0400038B10BF0100020B145F49E
:100E8000806510202168086106F0200040B10BF059
:100E9000080028B1082021680861204600F0BCF94C
:100EA00006F0100038B12068006900F0030010B1AE
:100EB000204600F0B3F906F4003040B109F010000C
:100EC00028B1102021684860204600F0D3F906F4CC
:100ED000803040B109F0080028B10820216848603E
:100EE000204600F0FDF906F4004088B309F0040044
:100EF00078B306F4807020B108F0010008B145F025
:100F0000010506F4007020B108F0020008B145F0B8
:100F1000020506F4806020B108F0040008B145F035
:100F2000040506F40060A0B108F0700088B108F074
:100F30007000402817D006DC10280BD020280CD0D9
:100F4000302819D10CE0502810D0602814D110E0BE
:100F50001DE019E045F008050FE045F010050CE034
:100F600045F0200509E045F0400506E045F0800524
:100F700003E045F4807500E000BF00BF2068806991
:100F800020F07000216888610420216848602DB13C
:100F9000606A284360622046FFF710FEBDE8F09FBC
:100FA00070B504460CB9012070BD94F8200010B94A
:100FB000204600F0AFF82068006840F0010021688A
:100FC000086000F0FBFC05460DE000F0F7FC401B5C
:100FD0000A2808D9606A40F400306062052084F86D
:100FE00020000120E0E72068406800F001000028B0
:100FF000EBD02068006820F002002168086000F053
:10100000DDFC05460DE000F0D9FC401B0A2808D99C
:10101000606A40F400306062052084F820000120FE
:10102000C2E72068406800F002000028EBD1207E73
:10103000012806D12068006840F08000216808601F
:1010400005E02068006820F0800021680860607E6C
:10105000012806D12068006840F04000216808603F
:1010600005E02068006820F0400021680860A07E4C
:10107000012806D12068006840F02000216808603F
:1010800005E02068006820F0200021680860E07E0C
:10109000012806D12068006820F01000216808604F
:1010A00005E02068006840F0100021680860207F9B
:1010B000012806D12068006840F008002168086017
:1010C00005E02068006820F0080021680860607F63
:1010D000012806D12068006840F0040021680860FB
:1010E00005E02068006820F0040021680860D4E969
:1010F0000201084321690843616908436168491E88
:1011000008432168C86100206062012084F8200043
:10111000002049E710B586B00446142101A8FFF766
:10112000FBF92349206888423FD100BF002000908E
:101130002048006840F000701E49086008460068BA
:1011400000F00070009000BF00BF00BF00200090C2
:1011500018481038006840F0080016491039086037
:101160000846006800F00800009000BF00BF0320A0
:101170000190022002900020039003200490092097
:10118000059001A90C4800F00BFB0022052114205A
:1011900000F0DCFC142000F0C5FC00220521152025
:1011A00000F0D4FC152000F0BDFC06B010BD00001E
:1011B0000064004040380240000C024070470000CC
:1011C00010B504461049206888420CD10F4BA3F19A
:1011D0001C0200212046FFF7F2FC0C482038816AEF
:1011E000001D88470FE00A49206888420BD1094B4F
:1011F000A3F11C0200212046FFF7E1FC054820383E
:10120000816A001D884710BD00640040E84D002041
:1012100000680040144E00207047000010B50446DE
:101220001049206888420CD10F4BA3F11C02012108
:101230002046FFF7C4FC0C482038816A001D88470F
:101240000FE00A49206888420BD1094BA3F11C0228
:1012500001212046FFF7B3FC05482038816A001DB4
:10126000884710BD00640040E84D00200068004041
:10127000144E0020704770B5044694F820000128F1
:1012800022D1022084F820002068006820F00100AC
:101290002168086000F092FB05460DE000F08EFB2F
:1012A000401B0A2808D9606A40F4003060620520BB
:1012B00084F82000012070BD2068406800F0010023
:1012C0000028EBD16062F6E7606A40F400206062BB
:1012D0000120F0E7704770477047704770477047CC
:1012E000704770B50446A56D00F068FB064694F89B
:1012F0003500022808D08020606500BF002084F8F7
:10130000340000BF012070BD2068006820F0160086
:10131000216808602068406920F0800021684861E9
:10132000206C08B9A06C28B12068006820F0080083
:10133000216808602068006820F0010021680860CA
:1013400010E000F03BFB801B05280BD920206065D6
:10135000032084F8350000BF002084F8340000BF6B
:101360000320D0E72068006800F001000028E8D1E1
:1013700094F85C103F208840A860012084F8350074
:1013800000BF002084F8340000BF00BFBBE7014667
:1013900091F83500022803D080204865012070476D
:1013A000052081F835000868006820F001000A680F
:1013B00010600020F3E70000F8B50446002000901C
:1013C0008C4800684FF41651B0FBF1F7A56D2E68FC
:1013D00094F85C1008208840304098B1206800687C
:1013E00000F0040070B12068006820F0040021685B
:1013F000086094F85C1008208840A860606D40F098
:101400000100606594F85C1001208840304068B1AC
:101410002068406900F0800040B194F85C10012021
:101420008840A860606D40F00200606594F85C1030
:1014300004208840304068B12068006800F0020055
:1014400040B194F85C1004208840A860606D40F0C2
:101450000400606594F85C1010208840304078B338
:101460002068006800F0080050B394F85C10102069
:101470008840A8602068006800F4802080B120685F
:10148000006800F4002028B9206CC8B12046216C07
:10149000884715E0A06C98B12046A16C88470FE002
:1014A0002068006800F4807028B92068006820F087
:1014B000080021680860206C10B12046216C884724
:1014C00094F85C10202088403040002865D02068C7
:1014D000006800F0100000285FD094F85C10202015
:1014E0008840A86094F83500052828D12068006855
:1014F00020F01600216808602068406920F0800014
:1015000021684861206C08B9A06C28B12068006887
:1015100020F008002168086094F85C103F208840A3
:10152000A860012084F8350000BF002084F8340052
:1015300000BF206D10B12046216D8847F8BD20689E
:10154000006800F4802080B12068006800F400206A
:1015500028B9606C10B12046616C88471DE0E06BD3
:10156000D8B12046E16B884717E02068006800F496
:10157000807068B92068006820F010002168086059
:10158000012084F8350000BF002084F8340000BF3B
:10159000E06B10B12046E16B8847606D38B3606D39
:1015A00000F00100F0B1052084F8350020680068E3
:1015B00020F001002168086000BF0098401C0090E6
:1015C000B84200D905E02068006800F0010000285A
:1015D000F3D100BF012084F8350000BF002084F85B
:1015E000340000BFE06C10B12046E16C884700BFBA
:1015F000A4E70000BC0100202DE9F04104460025CD
:1016000000F0DCF9074614B90120BDE8F081606AFA
:1016100000B100BF022084F8350000BF002084F82C
:10162000340000BF2068006820F0010021680860D5
:101630000AE000F0C3F9C01B052805D92020606529
:10164000032084F83500E0E72068006800F001001E
:101650000028EED12068056821480540D4E9010141
:101660000843E16808432169084361690843A169A7
:101670000843E1690843216A08430543606A042876
:1016800003D1D4E90B0108430543206805602068B5
:10169000456925F00705606A0543606A04280DD195
:1016A000A06A0543E06A48B12046FFF7E3F828B195
:1016B00040206065012084F83500A6E72068456178
:1016C0002046FFF7BDF8064694F85C103F2088409E
:1016D000B06000206065012084F83500002094E7A8
:1016E0003F8010F02DE9F04704460D4616461F4690
:1016F0004FF00008D4F8589000BF94F83400012847
:1017000002D10220BDE8F087012084F8340000BF38
:1017100094F83500012825D1022084F835000020F6
:1017200060653B46324629462046FFF7F8F894F8B4
:101730005C103F208840C9F808002068006840F02D
:10174000160021680860206C28B12068006840F00D
:101750000800216808602068006840F001002168E6
:10176000086006E000BF002084F8340000BF4FF09E
:1017700002084046C6E7000070B5044600F01EF9B6
:1017800006462546681C10B104480078054400BF91
:1017900000F014F9801BA842FAD370BDB8010020F4
:1017A000F8B502460B460025002400200021E0E0A9
:1017B000012606FA01F51E6806EA0504AC4274D15A
:1017C0001E7906F00306012E04D01E7906F00306EA
:1017D000022E13D190684F000326BE40B0434F0045
:1017E000DE68BE4030439060506801268E40B043B2
:1017F0001E79C6F300168E40304350601E7906F005
:101800000306032E09D0D0684F000326BE40B04324
:101810004F009E68BE403043D0601E7906F003063C
:10182000022E13D1CF0802F1200656F827004E07EA
:10183000F70E0F26BE40B0434F07FF0E1E69BE4095
:101840003043CF0802F1200646F8270010684F0009
:101850000326BE40B0431E7906F003064F00BE408B
:10186000304310605E6806F44036002E1DD000BF85
:1018700000260096414E366846F480463F4F3E6053
:101880003E46366806F48046009600BF00BF3C4ED8
:101890008F0856F827008E07370F0F26BE40B0433B
:1018A000384EB24202D100262EE061E0364EB242FE
:1018B00001D1012628E0354EB24201D1022623E0B3
:1018C000334EB24201D103261EE0324EB24201D164
:1018D000042619E0304EB24201D1052614E02F4E05
:1018E000B24201D106260FE02D4EB24201D10726A9
:1018F0000AE02C4EB24201D1082605E02A4EB2423F
:1019000001D1092600E00A268F073F0FBE40304371
:101910001B4E8F0846F82700244E3068A0435E68AF
:1019200006F4801606B12043204E3060361D306824
:10193000A0435E6806F4001606B120431B4E361D18
:1019400030601A4E361F3068A0435E6806F40036D9
:1019500006B12043154E361F3060361F3068A04355
:101960005E6806F4803606B12043104E083E3060B3
:10197000491C1029FFF41CAFF8BD00004438024098
:101980000838014000000240000402400008024004
:10199000000C0240001002400014024000180240F7
:1019A000001C02400020024000240240083C01408C
:1019B0000AB1816101E00B0483617047014800684E
:1019C00070470000B001002003480068034909780F
:1019D0000844014908607047B0010020B8010020A8
:1019E00010B50D48006840F400700B4908600846C7
:1019F000006840F4806008600846006840F4807029
:101A00000860032000F0E0F80F2000F007F800F075
:101A10005FF8002010BD0000003C02402DE9F041BD
:101A200088B004460027B84600BF00200190234834
:101A3000006840F48070214908600846006800F49E
:101A40008070019000BF00BF02A903A800F0D8F980
:101A5000069F1FB900F0FCF9054602E000F0F8F916
:101A600045001748B5FBF0F0A0F1010815481649EC
:101A7000086040F2E7311448C160C0F804800021DA
:101A800001618160816100F0ABFC064696B90E48A9
:101A900000F0DAFC06466EB92D2000F043F8102C59
:101AA00007D2002221462D2000F050F8074804609C
:101AB00000E00126304608B0BDE8F0814038024021
:101AC00040420F0000200040AC040020B401002080
:101AD00008B500BF002000901148006840F4804025
:101AE0000F4908600846006800F48040009000BF7D
:101AF00000BF00BF00200090081F006840F0805029
:101B0000091F08600846006800F08050009000BF80
:101B100000BF00220F21901E00F018F808BD000041
:101B2000443802400146084600280DDB00BF00BFD4
:101B300000F01F0301229A4043099B0003F1E023B8
:101B4000C3F8002100BF00BF00BF70472DE9F05F60
:101B500080460D461646002703F04AF907463946E7
:101B60002A46334601F00700C0F1070ABAF1040F14
:101B700002D94FF0040A01E0C0F1070AD14600F192
:101B8000040ABAF1070F02D24FF0000A01E0A0F1F7
:101B9000030AD4464FF0010A0AFA09FAAAF1010A27
:101BA0000AEA020A0AFA0CFA4FF0010B0BFA0CFBD4
:101BB000ABF1010B0BEA030B4AEA0B04214640464A
:101BC00003F01EF9BDE8F09F00BF00F00702064BCE
:101BD00019684FF6FF031940044B0B4343EA0221F7
:101BE000014B196000BF70470CED00E00000FA05E2
:101BF00038B5002400BF002000901D48006840F068
:101C000080501B4908600846006800F08050009032
:101C100000BF00BF012017490864FFF7CFFE04464C
:101C200007E0FFF7CBFE001BB0F57A7F01D9032058
:101C300038BD1148406800F48030B0F5803FF0D1E5
:101C400001200C494864FFF7B9FE044607E0FFF79E
:101C5000B5FE001BB0F57A7F01D90320E8E70648FE
:101C6000406800F40030B0F5003FF0D10020DFE71D
:101C70004038024000000E420070004070B504463B
:101C80000D460CB9012070BD5848006800F00F00E7
:101C9000A84209D255490D700846006800F00F00AF
:101CA000A84201D00120EEE7207800F002000228CF
:101CB0001DD1207800F00400042805D14C480068AC
:101CC00040F4E0504A490860207800F008000828F5
:101CD00005D14748006840F46040454908604448E1
:101CE000006820F0F000A1680843414908602078AE
:101CF00000F00100A8B36068012807D13C4808380B
:101D00000068C0F34040B8B90120BCE76068022811
:101D100002D06068032807D1354808380068C0F34E
:101D2000406048B90120AEE7314808380068C0F388
:101D3000400008B90120A6E72D48006820F0030004
:101D4000616808432A490860FFF738FE064609E043
:101D5000FFF734FE801B41F28831884202D903200C
:101D600091E707E02248006800F00C006168B0EBE2
:101D7000810FEDD11D48006800F00F00A84209D97D
:101D80001A490D700846006800F00F00A84201D003
:101D9000012078E7207800F00400042807D11448D7
:101DA000006820F4E050E168084311490860207899
:101DB00000F00800082808D10D48006820F46040B1
:101DC000216940EAC1000A49086000F061F8084949
:101DD0000968C1F30311074A515CC840064908600D
:101DE00006480068FFF71AFE00204CE7003C02405E
:101DF000083802407C760008BC010020B4010020B5
:101E00000F2202600D4A126802F0030242600B4A80
:101E1000126802F0F0028260084A126802F4E0528E
:101E2000C260064A126802F46042D2080261044AA3
:101E3000126802F00F020A60704700000838024082
:101E4000003C02400148006870470000BC010020CF
:101E500000B5FFF7F7FF04490968C1F38221034A7F
:101E6000515CC84000BD0000083802408C76000874
:101E700000B5FFF7E7FF04490968C1F34231034A9F
:101E8000515CC84000BD0000083802408C76000854
:101E90002DE9F047002400250026A14625480068CA
:101EA00000F00C0020B1042805D008283AD105E044
:101EB000DFF8849039E0DFF8849036E01D48001F99
:101EC000006800F03F041B48001F006800F4800019
:101ED00078B11A481749091F0968C1F38811A0FB96
:101EE00001700146224600233846FEF751FA0546A6
:101EF0000EE011480F49091F0968C1F38811A0FBC2
:101F000001700146224600233846FEF741FA054695
:101F10000848001F0068C0F30140401C4600B5FBA4
:101F2000F6F902E0DFF8109000BF00BF4846BDE8B8
:101F3000F0870000083802400024F400001BB700BE
:101F4000F8B504460CB90120F8BD207800F0010076
:101F5000002874D0F948006800F00C0004280DD067
:101F6000F648006800F00C00082813D1F348001F61
:101F7000006800F48000B0F5800F0BD1EF480838FE
:101F80000068C0F34040002859D06068002856D14E
:101F90000120D9E700BF6068B0F5803F08D1E7486D
:101FA0000838006840F48030E449083908601EE0D1
:101FB0006068B0F5A02F0DD1E0480838006840F403
:101FC0008020DE49083908600846006840F4803007
:101FD00008600CE0D9480838006820F48030D74900
:101FE000083908600846006820F48020086000BFB7
:101FF000606890B1FFF7E2FC054606E0FFF7DEFC03
:10200000401B642801D903209EE7CC4808380068AB
:10201000C0F340400028F1D011E0FFF7CFFC0546A7
:1020200006E0FFF7CBFC401B642801D903208BE7B7
:10203000C24808380068C0F340400028F1D1207839
:1020400000F0020002285FD1BC48006800F00C00DC
:1020500058B1BA48006800F00C0008281CD1B748F5
:10206000001F006800F48000B0B9B4480838006868
:10207000C0F3400020B1E068012801D0012063E7EF
:10208000AE480838006820F0F800216940EAC10035
:10209000AA490839086037E0E06800B30120A84980
:1020A0000860FFF78BFC054606E0FFF787FC401B46
:1020B000022801D9032047E7A04808380068C0F388
:1020C00040000028F1D09D480838006820F0F80052
:1020D000216940EAC10099490839086014E00020EC
:1020E00097490860FFF76AFC054606E0FFF766FCC3
:1020F000401B022801D9032026E7904808380068D1
:10210000C0F340000028F1D1207800F00800082832
:102110002CD16069A8B101208A490860FFF74EFC04
:10212000054606E0FFF74AFC401B022801D90320C0
:102130000AE782486C300068C0F340000028F1D004
:1021400014E000207F490860FFF738FC054606E0F0
:10215000FFF734FC401B022801D90320F4E677483E
:102160006C300068C0F340000028F1D1207800F006
:102170000400042870D1002770483830006800F04F
:10218000805090B900BF002000906C483830006843
:1021900040F080506949383108600846006800F016
:1021A0008050009000BF00BF01276748006800F41E
:1021B0008070B0B96448006840F48070624908607B
:1021C000FFF7FCFB054606E0FFF7F8FB401B022883
:1021D00001D90320B8E65C48006800F4807000284C
:1021E000F2D000BFA068012808D1544868300068C8
:1021F00040F001005149683108601DE0A0680528E1
:102200000DD14E486830006840F004004B496831F9
:1022100008600846006840F0010008600CE047488C
:102220006830006820F001004449683108600846C1
:10223000006820F00400086000BFA068A8B1FFF7A4
:10224000BDFB054609E0FFF7B9FB401B41F28831B1
:10225000884202D9032077E626E0384868300068D3
:10226000C0F340000028EED013E0FFF7A7FB0546BF
:1022700008E0FFF7A3FB401B41F28831884201D9F7
:10228000032061E62D4868300068C0F34000002854
:10229000EFD1012F07D129483830006820F0805055
:1022A00026493831086000BFA069002845D023487E
:1022B000006800F00C0008285DD0A069022845D114
:1022C00000201F490866FFF779FB054606E0FFF787
:1022D00075FB401B022801D9032035E61748083852
:1022E0000068C0F340600028F1D1D4E90701084339
:1022F000616A40EA81110122A06AC2EB500041EA02
:1023000000412C20005D41EA00600C49091F086073
:1023100001200B490866FFF751FB054606E0FFF771
:102320004DFB401B022801D903200DE60348083865
:102330000068C0F340600028F1D049E0083802404E
:1023400000004742800E47420070004000202149B3
:102350000866FFF733FB054606E0FFF72FFB401B3F
:10236000022801D90320EFE51B480068C0F3406054
:102370000028F2D12CE0A069012800D1E4E516483C
:10238000001D0668A069012820D006F48001E069DC
:1023900081421BD106F03F01206A814216D147F6E7
:1023A000C0703040616AB0EB811F0FD106F440313C
:1023B0000122A06AC2EB5000B1EB004F06D106F03B
:1023C00070612C20005DB1EB006F01D00120BBE5F6
:1023D0000020B9E5000047420038024070477047CE
:1023E00010B504460CB9012010BD94F83D0028B981
:1023F000002084F83C00204600F025F8022084F8F4
:102400003D00211D206800F0D1FE012084F8460027
:1024100000BF84F83E0001213F20015540200155B6
:102420004120015500BF00BF012084F84200432035
:102430000155442001554520015500BF012084F875
:102440003D000020D0E77047014691F83D0001288B
:1024500001D001207047022081F83D000868C06863
:1024600040F001000B68D8601A4B086898421BD0F6
:102470000868B0F1804F17D0174B0868984213D006
:10248000164B086898420FD0154B086898420BD03D
:10249000144B0868984207D0134B0868984203D041
:1024A000124B086898420CD10868806800F0070257
:1024B000062A0CD00868006840F001000B6818601C
:1024C00005E00868006840F001000B681860002013
:1024D000C0E7000000000140000400400008004088
:1024E000000C004000040140004001400018004082
:1024F000704770B504462068C5682068066906F014
:102500000200022819D105F00200022815D1401F4F
:1025100021680861012020772068806900F00300AD
:1025200018B12046FFF7E4FF05E0204600F097F8D9
:10253000204600F095F80020207706F004000428DB
:1025400019D105F00400042815D1C04321680861A1
:10255000022020772068806900F4407018B120467E
:10256000FFF7C6FF05E0204600F079F8204600F0AE
:1025700077F80020207706F00800082819D105F028
:102580000800082815D1C04321680861042020777D
:102590002068C06900F0030018B12046FFF7A8FFCB
:1025A00005E0204600F05BF8204600F059F80020D6
:1025B000207706F01000102819D105F0100010281F
:1025C00015D1C04321680861082020772068C069C0
:1025D00000F4407018B12046FFF78AFF05E020465E
:1025E00000F03DF8204600F03BF80020207706F090
:1025F000010048B105F0010030B16FF00100216821
:102600000861204600F02EF806F08000802809D1ED
:1026100005F08000802805D1C0432168086120466C
:10262000FFF7DCFE06F04000402809D105F040002D
:10263000402805D1C04321680861204600F0F4F825
:1026400006F02000202809D105F02000202805D11F
:10265000C043216808612046FFF7C1FE70BD704786
:102660007047000010B504465348007800B910BD0B
:1026700052492068884207D151484068002802D05A
:102680004F494868804794E02068B0F1804F07D1F7
:102690004C4840680028F6D04A494868804788E09E
:1026A00049492068884207D1484840680028EAD054
:1026B0004649486880477CE045492068884207D100
:1026C00044484068002874D042494868804770E018
:1026D00041492068884207D140484068002868D0B6
:1026E0003E494868804764E03D492068884207D1F8
:1026F0003C48406800285CD03A494868804758E028
:1027000039492068884207D138484068002850D0AD
:102710003649486880474CE035492068884207D1EF
:1027200034484068002844D032494868804740E037
:1027300031492068884206D13048406818B32F4993
:102740004868804735E02E492068884206D12D48E8
:102750004068C0B12B49486880472AE02A49206870
:10276000884206D12948406868B1284948688047AE
:102770001FE027492068884206D12648406810B1EA
:1027800024494868804714E023492068884206D1DC
:102790002248406868B121494868804709E02049DB
:1027A0002068884205D11F48406810B11D4948681B
:1027B000804700BF5BE700000000002000000140F0
:1027C0009C020020A402002000040040AC02002073
:1027D00000080040B4020020000C0040BC020020B1
:1027E00000100040C402002000140040CC02002071
:1027F00000040140D402002000400140DC0200201F
:1028000000440140E402002000480140EC020020A6
:1028100000180040F4020020001C0040FC020020D0
:1028200000200040040300207047F8B504460D4620
:10283000164694F8420020282DD105B10EB901208A
:10284000F8BD0120206300206063324629462046FF
:1028500000F0A6FF0746206B012819D100BF002019
:10286000009020680068009020684068009000BFD9
:1028700000BF00BF00BF21680C3151E8001F41F0CC
:10288000100021680C3141E80002002AF3D100E079
:1028900001273846D4E70220D2E7000070B504468D
:1028A0000D465049206888420FD14F482946D0F83C
:1028B000082200F5827090474B48B0F8042200F5DA
:1028C00082712046FFF7B1FF8AE0484920688842BC
:1028D0000FD147482946D0F8082200F5827090476A
:1028E0004348B0F8042200F582712046FFF79DFFAF
:1028F00076E04049206888420FD13F482946D0F809
:10290000082200F5827090473B48B0F8042200F599
:1029100082712046FFF789FF62E0384920688842CB
:102920000FD137482946D0F8082200F58270904729
:102930003348B0F8042200F582712046FFF775FF96
:102940004EE03049206888420FD12F482946D0F800
:10295000082200F5827090472B48B0F8042200F559
:1029600082712046FFF761FF3AE0284920688842DB
:102970000FD127482946D0F8082200F582709047E9
:102980002348B0F8042200F582712046FFF74DFF7E
:1029900026E02049206888420FD11F482946D0F8F8
:1029A000082200F5827090471B48B0F8042200F519
:1029B00082712046FFF739FF12E0184920688842EB
:1029C0000ED117482946D0F8082200F582709047AA
:1029D0001348B0F8042200F582712046FFF725FF66
:1029E00070BD000000100140204E00200044004057
:1029F0002C5000200048004038520020004C00407D
:102A00004454002000500040505600200014014063
:102A10005C58002000780040685A0020007C00408C
:102A2000745C0020704700002DE9F84F04462068D0
:102A300005682068C668206847694FF00009CA46E3
:102A400005F00F09B9F1000F0AD105F0200038B1E7
:102A500006F0200020B1204600F00EFDBDE8F88F02
:102A6000B9F1000F7CD007F0010018B906F490709E
:102A7000002875D005F0010030B106F4807018B15F
:102A8000606C40F00100606405F0040030B107F0B4
:102A9000010018B1606C40F00200606405F00200B3
:102AA00030B107F0010018B1606C40F004006064C0
:102AB00005F0080048B106F0200010B907F0010049
:102AC00018B1606C40F008006064606C002846D06B
:102AD00005F0200028B106F0200010B1204600F0DB
:102AE000CBFC20684069C0F3801A606C00F00800DD
:102AF00010B9BAF1000F2DD0204600F064FC206818
:102B0000406900F04000402820D100BF00BF21688C
:102B1000143151E8001F21F040002168143141E8D0
:102B20000002002AF3D100BFE06B50B17F48E16B97
:102B30000865E06BFEF72BFC88B1E06B016D884700
:102B40000DE02046FFF76EFF09E009E02046FFF7A1
:102B500069FF04E02046FFF765FF002060647DE721
:102B6000206B012878D105F01000002874D006F001
:102B700010000028FAD000BF0020009020680068F4
:102B8000009020684068009000BF00BF2068406946
:102B900000F04000402870D1E06B006840681FFAE8
:102BA00080F8B8F1000F58D0A08D404555DDA4F84D
:102BB0002E80E06BC069B0F5807F43D000BF00BFBE
:102BC00021680C3151E8001F21F4807021680C311C
:102BD00041E80002002AF3D100BF00BF00BF216816
:102BE000143151E8001F21F001002168143141E83F
:102BF0000002002AF3D100BF00BF00BF21681431DA
:102C000051E8001F21F040002168143141E8000222
:102C1000002AF3D100BF202084F842000020206366
:102C200000BF00BF21680C3151E8001F21F01000E7
:102C300021680C3141E80002002AF3D100BFE06BAB
:102C4000FEF74FFB02206063A08DE28D801A81B2F7
:102C50002046FFF723FE0EE052E0A08D40450AD14A
:102C6000E06BC069B0F5807F05D102206063A18D63
:102C70002046FFF713FEF1E6FFE7A08DE18D401A35
:102C80001FFA80F8E08DD0B3B8F1000F37D000BF45
:102C900000BF21680C3151E8001F21F490702168B9
:102CA0000C3141E80002002AF3D100BF00BF00BF91
:102CB0002168143151E8001F21F00100216814310E
:102CC00041E80002002AF3D100BF202084F842002E
:102CD0000020206300BF00BF21680C3151E8001FB5
:102CE00021F0100021680C3141E80002002AF3D1E4
:102CF00000BF0220606341462046FFF7CFFDADE6EE
:102D000005F0800030B106F0800018B1204600F0D8
:102D1000B3FDA3E605F0400030B106F0400018B165
:102D2000204600F086FB99E600BF97E68D3200084A
:102D300010B504460CB9012010BDA06900B100E037
:102D400000BF94F8410028B9002084F840002046D4
:102D500000F02AF8242084F841002068C06820F49C
:102D600000502168C860204600F004FC206800691B
:102D700020F49040216808612068406920F02A0012
:102D8000216848612068C06840F400502168C8602C
:102D900000206064202084F8410084F84200002074
:102DA000606300BFC8E7000010B586B00446142178
:102DB00001A8FDF7B1FB3D492068884273D100BFEF
:102DC000002000903A48006840F40030384908601C
:102DD0000846006800F40030009000BF00BF00BF4C
:102DE0000020009032481038006840F00800304958
:102DF000103908600846006800F00800009000BF25
:102E000000BF602001900220029000200390032068
:102E100004900720059001A92648FEF7C1FC26482A
:102E2000264908604FF00060486000212348816017
:102E3000C1604FF480610161002141618161C16124
:102E400001624162FEF7D8FB08B1FDF77FFD00BFCC
:102E50001A48E063846300BF1748183018490860B7
:102E60004FF0006048604021154881600021C1603A
:102E70004FF480610161002141618161C1610162A2
:102E80004162FEF7B9FB08B1FDF760FD00BF0C48D9
:102E9000A063846300BF002205212620FEF756FEB2
:102EA0002620FEF73FFE06B010BD000000440040A3
:102EB00040380240000C024088600240EC030020D1
:102EC0004C04002070477047704700BFFEE70000C9
:102ED00010B504462146024801F03EFC10BD00003A
:102EE000785F002000BF20480068401C1E49086031
:102EF0000846006840F6B831B0FBF1F000F0010080
:102F000010B9DFED1A0A01E0DFED190AB0EE600A30
:102F1000184880ED150A00BF9FED140A80ED160ACF
:102F200000BF9FED120A80ED170A00BFB3EE040A3E
:102F300080ED190A00BF9FED100A80ED1A0A00BF4C
:102F400001F020FC0D4801680068401C0B4A10602D
:102F5000642905D9002011460860064801F074FC78
:102F6000012002F04DFBBEE72C0300200000000012
:102F7000DB0FC940785F00209A99993E300300200A
:102F800008B50020DFED071AB2EE041AF3EE090AC5
:102F9000B2EE090A0123024603490090034801F0FA
:102FA00069FC08BDDA2D24417C030020785F0020F5
:102FB00010B50E480E4908600920486000210C48F1
:102FC0008160C1604FF480310161090141610021DC
:102FD00001760121417600218176C1760177417722
:102FE000FDF7DEFF08B1FDF7B1FC10BD0064004045
:102FF0007C03002008B500BF002000900E48006848
:1030000040F400100C4908600846006800F4001005
:10301000009000BF00BF002205211020FEF796FDA2
:103020001020FEF77FFD002205211120FEF78EFD06
:103030001120FEF777FD08BD3038024010B5074A71
:103040000021074802F032FB06490860064A0021C9
:10305000064802F02BFB0649086010BD2C760008DC
:103060005F310008A8010020507600084D310008AB
:10307000AC01002000B587B0142102A8FDF74CFA7E
:1030800000BF002001901F48006840F001001D496A
:1030900008600846006800F00100019000BF00BF12
:1030A00000BF002001900846006840F0080008605A
:1030B0000846006800F00800019000BF00BF00BF94
:1030C000002001900846006840F080000860084633
:1030D000006800F08000019000BF00BF00223C218A
:1030E0000948FEF765FC3C20029001200390022075
:1030F00004900020059002A90348FEF751FB07B099
:1031000000BD000030380240001C024010B50A48E3
:103110000A4908600A484860002108488160C16087
:1031200001610C21416100218161C161FFF700FE55
:1031300008B1FDF70BFC10BD00440040A4030020C3
:1031400040420F0000BFFEE700BFFEE704462046F6
:10315000FDF71AFB00BF012002F052FAFBE704461C
:103160002046FFF7BFFE00BF012002F049FAFBE74F
:1031700010B54FF0E020006903F0D8FF012801D01E
:1031800003F022FC10BD00000348006840F470000A
:10319000014908607047000088ED00E010B5024862
:1031A000FFF7A7F910BD0000AC04002010B50268BD
:1031B0002B4B98420ED0B0F1804F0BD0294B984248
:1031C00008D0294B984205D0284B984202D0284B72
:1031D000984203D122F070024B681A43204B984268
:1031E00020D0B0F1804F1DD01E4B98421AD01E4BFC
:1031F000984217D01D4B984214D01D4B984211D0C5
:103200001C4B98420ED01C4B98420BD01B4B984243
:1032100008D01B4B984205D01A4B984202D01A4B4B
:10322000984203D122F44072CB681A4322F0800303
:103230004C6943EA04028B68C3620B688362084BE3
:10324000984202D00A4B984201D10B69036303688C
:1032500043F00403036001234361026010BD0000DA
:10326000000001400004004000080040000C004045
:10327000000401400040014000440140004801407A
:1032800000180040001C00400020004070B50446BB
:10329000A56B0020E8852846FFF7C4FB70BD70B51C
:1032A00006460025B46B20684069C0F3C01594F849
:1032B0004100212805D125B10020E084204600F0FE
:1032C000C8F820684069C0F3801594F842002228AD
:1032D00005D125B10020E085204600F074F8606C2F
:1032E00040F0100060642046FFF79CFB70BD70B595
:1032F0000546AC6B2868006800F48070002842D155
:10330000E08500BF00BF21680C3151E8001F21F4A7
:10331000807021680C3141E80002002AF3D100BF1F
:1033200000BF00BF2168143151E8001F21F00100E7
:103330002168143141E80002002AF3D100BF00BF28
:1033400000BF2168143151E8001F21F040002168BE
:10335000143141E80002002AF3D100BF202084F894
:103360004200206B01280ED100BF00BF21680C3144
:1033700051E8001F21F0100021680C3141E80002E3
:10338000002AF3D100BF00206063206B012804D124
:10339000A18D2046FFF782FA02E02046FFF792FD5A
:1033A00070BD70B50546AC6B01206063206B0128D1
:1033B00005D1A08D41082046FFF770FA02E02046B3
:1033C000FFF781FD70BD00BF00BF02680C3252E8FC
:1033D000002F22F4907102680C3242E80013002B97
:1033E000F3D100BF00BF00BF0268143252E8002FC3
:1033F00022F001010268143242E80013002BF3D1DD
:1034000000BF016B01290ED100BF00BF02680C3262
:1034100052E8002F22F0100102680C3242E800133B
:10342000002BF3D100BF202180F84210002101635E
:10343000704710B504462068C06820F0400021683D
:10344000C860202084F841002046FFF73DFD0020A1
:1034500010BD00BF00BF02680C3252E8002F22F0FE
:10346000C00102680C3242E80013002BF3D100BF08
:10347000202180F841107047F8B504460025002649
:1034800094F84200222873D1A068B0F5805F0BD178
:10349000206948B9A66A20684068C0F308003080F7
:1034A000A06A801CA06214E0A56AA068B0F5805FE5
:1034B00003D0A06828B9206918B92068406828702E
:1034C00004E02068406800F07F002870A06A401C7B
:1034D000A062E08D401E80B2E085002846D12068C1
:1034E000C06820F020002168C8602068C06820F40F
:1034F00080702168C8602068406920F00100216860
:103500004861202084F8420000206063206B01287D
:1035100026D10020206300BF00BF21680C3151E894
:10352000001F21F0100021680C3141E80002002A40
:10353000F3D100BF2068006800F0100010280AD105
:1035400000BF00200090206800680090206840685C
:10355000009000BF00BFA18D2046FFF79FF902E059
:103560002046FFF7AFFC0020F8BD01E00020FBE79C
:103570000220F9E72DE9F84F04462068006920F49D
:103580004050E1680843216808612169A068084348
:1035900061690843E169084300902068C06849F206
:1035A0000C618843009908432168C860206840691D
:1035B00020F44070A1690843216848617649206879
:1035C000884203D075492068884203D1FEF750FC39
:1035D000814602E0FEF73CFC8146E069B0F5004F11
:1035E0006CD102206168A0FB015003461920A9FBA1
:1035F000007001462A463846FCF7CAFE6421B0FB3B
:10360000F1F04FEA001A02206168A0FB01510B465D
:103610001920A9FB00712A463846FCF7B9FE8346FB
:1036200002206168A0FB015003461920A9FB00712C
:103630002A463846FCF7ACFE6421B0FBF1F000EB03
:10364000C00101EB0010ABEB8000322101EBC000A8
:103650006421B0FBF1F000F0F8000AEB400A022010
:103660006168A0FB015003461920A9FB00700146C8
:103670002A463846FCF78CFE834602206168A0FB90
:10368000015003461920A9FB00712A463846FCF771
:103690007FFE6421B0FBF1F000EBC00101EB0010F4
:1036A000ABEB8000322101EBC0006421B0FBF1F0F4
:1036B00000F007005044216888606AE004206168D7
:1036C000A0FB015003461920A9FB007001462A46C1
:1036D0003846FCF75DFE824604206168A0FB01507D
:1036E00003461920A9FB007001462A463846FCF71C
:1036F0004FFE6421B0FBF1F000EBC00101EB0010C4
:10370000AAEB8000322101EB00106421B0FBF1F044
:1037100000F0F00A04206168A0FB01700346192044
:10372000A9FB00513A462846FCF732FE6421B0FB63
:10373000F1F00AEB001A04206168A0FB01510B466E
:103740001920A9FB00712A463846FCF721FE834662
:1037500004206168A0FB015003461920A9FB0070FA
:1037600001462A463846FCF713FE6421B0FBF1F00F
:1037700000EBC00101EB0010ABEB8000322101EB4C
:1037800000106421B0FBF1F000F00F0050442168FC
:103790008860BDE8F88F000000100140001401406F
:1037A00077B581B0044615460298A062A585002031
:1037B0006064222084F842002C48E16BC8632C48E6
:1037C000E16B08642B48E16BC8640020E16B08657D
:1037D00002AE32682368191D2B46E06BFDF782FFAD
:1037E00038B110206064202084F84200012004B029
:1037F00070BD00BF00200090206800680090206825
:103800004068009000BF00BF206970B100BF00BFDA
:1038100021680C3151E8001F41F4807021680C319F
:1038200041E80002002AF3D100BF00BF00BF2168B9
:10383000143151E8001F41F001002168143141E8C2
:103840000002002AF3D100BF00BF00BF216814317D
:1038500051E8001F41F040002168143141E80002A6
:10386000002AF3D100BF0020C1E70000EF320008BA
:10387000A33300089F320008014691F84100212837
:1038800028D18868B0F5805F0BD1086948B90A6A09
:103890001088C0F308000B685860086A801C086232
:1038A00005E00B6A581C086218780B685860C88CD1
:1038B000401E80B2C88458B90868C06820F08000F3
:1038C0000B68D8600868C06840F040000B68D8609A
:1038D000002070470220FCE710B50248FFF7A4F86B
:1038E00010BD0000A403002000BFFEE710B5044691
:1038F000224610210148FEF75BF810BD001C024073
:1039000010B50446224620210148FEF751F810BDAB
:10391000001C024010B50446224604210148FEF76F
:1039200047F810BD001C024010B50446224608218D
:103930000148FEF73DF810BD001C0240F0B587B00D
:1039400006460C4617461D4601940020029003903F
:10395000049005956B463A4601A93046FCF7F9FFFD
:1039600007B0F0BD10B5FEF72FF810BD0246164B9C
:103970009A4228D10C2925D2DFE801F02406080B51
:103980000E111316191C1E2110481BE00F48801C35
:1039900018E00E48001D15E00C48801D12E00C4890
:1039A00010E00B48801C0DE00948001D0AE00848A3
:1039B000801D07E0074805E00648801C02E0054836
:1039C000001D00BF00BF70477C030020480200209C
:1039D0004002002050020020024630EE602A71EEC4
:1039E000602A82EE223AF0EE431A8B1A02EE103A67
:1039F000F8EEC22A02EE102AB8EEC22A01EEA22A7E
:103A0000BDEEC22A12EE100A7047B0EE401A431AF9
:103A100002EE103AF8EEC22A531A02EE103AB8EE4D
:103A2000C22A82EE823AF0EE431A70EEC12AB0EE5C
:103A3000412A01EEA22AB0EE420A704700B593B0C7
:103A4000302107A8FCF768FD142102A8FCF764FDEB
:103A500000BF002001902648006840F080502449B3
:103A600008600846006800F08050019000BF00BF69
:103A700000BF002001901F48006840F440401D49ED
:103A800008600846006800F44040019000BF00BF95
:103A9000012007900004089002200D9041050E912E
:103AA00006210F91B421109102211191042112914C
:103AB00007A8FEF745FA08B1FCF748FFFEF798F8AB
:103AC00008B1FCF743FF0F20029002200390002072
:103AD00004904FF4A05005904FF4805006900521BB
:103AE00002A8FEF7CBF808B1FCF730FF13B000BD19
:103AF000403802400070004010B50446206838B1DC
:103B0000A0F2012040B904F11C00FCF733FE00BF15
:103B100004F11C00FFF7DCF910BDF0B58BB00746CF
:103B20000C4615461E4604F0020080B1E8040190E0
:103B3000E80004F0030140EA41000290F004039021
:103B4000F00004F0030140EA4100049009E068013C
:103B50000190A007400F029070010390A007400F52
:103B60000490E0100690C4F38000059001200990B5
:103B700000200790012008900E200A9001A93846E5
:103B8000FCF78CFF0BB0F0BD70B5024613465878B9
:103B90001C7840EA042531B110460C464678267060
:103BA0000678667000BF284670BD000070B50446F8
:103BB0000D462146034800F059FC024800F01CFC69
:103BC00000BF70BD3403002010B50D480068401CD4
:103BD0000B49086008230B4A99010B48FFF7AEFE1A
:103BE00008230A4A40F2FE310748FFF7A7FE0448BF
:103BF0000068092802D100200149086010BD0000BA
:103C000098020020480200207C0300205802002077
:103C100010B52DED028B0446B0EE408AF0EE608ABE
:103C200004F00100FFF76CFEC4F34000FFF75EFEF6
:103C3000C4F38000FFF778FEC4F3C000FFF76AFE0C
:103C4000012121EA141000F077F9012121EA541032
:103C500000F066F9012121EA941000F00FF901212A
:103C600021EAD41000F014F9012121EA142000F017
:103C700019F9012121EA542000F01EF9012121EA5D
:103C8000942000F023F9012121EAD42000F028F942
:103C9000012121EA143000F02DF9012121EA5430EC
:103CA00000F032F9BDEC028B10BD000070B5044687
:103CB0000D462046FDF7DFFA2068406940F002001B
:103CC000216848612068406940F01000216848611F
:103CD0001349206888420FD112480460856200238E
:103CE0001A4619462046FFF718FF00231A460C21F2
:103CF0002046FFF712FF12E00B49206888420ED1E0
:103D00000A480460856200231A4670212046FFF7A6
:103D100004FF00231A467C212046FFF7FEFE70BDFB
:103D200000640040C84D002000680040F44D0020B1
:103D3000374B02689A4203D1364A1060516066E000
:103D40000268B2F1804F03D1334A106051605EE0E7
:103D5000324B02689A4203D1314A1060516056E0FA
:103D6000304B02689A4203D12F4A106051604EE0F6
:103D70002E4B02689A4203D12D4A1060516046E0F2
:103D80002C4B02689A4203D12B4A106051603EE0EE
:103D90002A4B02689A4203D1294A1060516036E0EA
:103DA000284B02689A4203D1274A106051602EE0E6
:103DB000264B02689A4203D1254A1060516026E0E2
:103DC000244B02689A4203D1234A106051601EE0DE
:103DD000224B02689A4203D1214A1060516016E0DA
:103DE000204B02689A4203D11F4A106051600EE0D6
:103DF0001E4B02689A4203D11D4A1060516006E0D2
:103E00001C4B02689A4202D11B4A106051607047F5
:103E1000000001409C020020A40200200004004099
:103E2000AC02002000080040B4020020000C00405A
:103E3000BC02002000100040C4020020001400401A
:103E4000CC02002000040140D402002000400140C8
:103E5000DC02002000440140E40200200048014050
:103E6000EC02002000180040F4020020001C00407A
:103E7000FC020020002000400403002010B504468E
:103E8000224602210148FDF793FD10BD00180240B3
:103E900010B50446224604210148FDF789FD10BDF6
:103EA0000018024010B50446224608210148FDF7DB
:103EB0007FFD10BD0018024010B5044622461021B7
:103EC0000148FDF775FD10BD0018024010B504460D
:103ED000224620210148FDF76BFD10BD001802406D
:103EE00010B50446224640210148FDF761FD10BD92
:103EF0000018024010B50446224680210148FDF713
:103F000057FD10BD0018024010B5044622464FF47C
:103F100080710248FDF74CFD10BD00000018024002
:103F200010B5044622464FF480410248FDF740FD9B
:103F300010BD00000014024010B5044622464FF4A4
:103F400000610248FDF734FD10BD00000010024082
:103F500070B504460D4616464749206888420DD183
:103F600046480460C0F80852A0F80462B0F8042281
:103F700000F582712046FEF758FC7CE0404920683D
:103F800088420DD13F480460C0F80852A0F804628E
:103F9000B0F8042200F582712046FEF746FC6AE084
:103FA0003949206888420DD138480460C0F8085269
:103FB000A0F80462B0F8042200F582712046FEF7F2
:103FC00034FC58E03249206888420DD13148046001
:103FD000C0F80852A0F80462B0F8042200F582711B
:103FE0002046FEF722FC46E02B49206888420DD18E
:103FF0002A480460C0F80852A0F80462B0F804220D
:1040000000F582712046FEF710FC34E02449206858
:1040100088420DD123480460C0F80852A0F8046219
:10402000B0F8042200F582712046FEF7FEFB22E084
:104030001D49206888420DD11C480460C0F8085210
:10404000A0F80462B0F8042200F582712046FEF761
:10405000ECFB10E01649206888420CD1154804603A
:10406000C0F80852A0F80462B0F8042200F582718A
:104070002046FEF7DAFB70BD00100140204E002004
:10408000004400402C5000200048004038520020DE
:10409000004C004044540020005000405056002086
:1040A000001401405C58002000780040685A00204D
:1040B000007C0040745C002080ED3B0A70470000EB
:1040C00030B550F8B83F5B1C0360038903824B781E
:1040D0000C7843EA04230381CB788C7843EA0423E9
:1040E0001BB243814B790C7943EA04231BB28381D1
:1040F0008B79C3810389048AB8381B1B1AB212F565
:10410000805F05DAD0F8D0305B1CC0F8D03007E013
:10411000B2F5805F04DDD0F8D0305B1EC0F8D0303F
:10412000AC30838A0589446A04FB0533036290ED51
:10413000080AF8EEC00A038900EE103AB8EE400A09
:1041400080EE801AB0EE000A21EE000ADFED130ABD
:1041500020EE200AD0ED000A80EE201A80ED0B1A26
:10416000B0F9163000EE103AB8EEC00ADFED0C0AD6
:1041700020EE200AD0ED000A80EE201A80ED0C1A05
:10418000B0F9183000EE103AB8EEC00A80ED0D0A12
:10419000837E80F83830AC3830BD0000DB0F4940FA
:1041A0005077D63D10B52DED028B044694F8E5000E
:1041B00030B1012818D002282AD003287BD145E04D
:1041C00094ED3C0AD4ED2C1A80EE211AB4F8B60016
:1041D00000EE100AB8EE400A21EE000AF0EE400AA6
:1041E000204600F0B7F86CE094ED3C0AD4ED2C1AB0
:1041F00080EE211AB4F8B60000EE100AB8EE400ABC
:1042000021EE000AF0EE400A204600F0A3F858E044
:10421000D4ED3B0AB0EE600A04F1500000F030FC2F
:10422000D4ED370AB0EE600A04F1500000F081FDD1
:1042300004F1500000F028FC04F1500000F076FD7D
:10424000B0EE408A204600F085F83AE0D4ED3A0A14
:10425000B0EE600A204600F013FCD4ED360AB0EE52
:10426000600A204600F065FD204600F00DFC204667
:1042700000F05CFD84ED3B0AD4ED3B0AB0EE600A31
:1042800004F1500000F0FCFBD4ED370AB0EE600AF8
:1042900004F1500000F04DFD04F1500000F0F4FB7B
:1042A00004F1500000F042FDB0EE408A204600F0DC
:1042B00051F806E0FFE79FED060A204600F04AF8B5
:1042C00000BF00BF204600F031F8BDEC028B10BDEE
:1042D00000000000F0B504460D4616461F460F4983
:1042E0002868884203D10E48C4F8A00006E00D49B2
:1042F0002868884202D10C48C4F8A00084F8A46061
:1043000084F8E57084ED2B0AC4ED2C0A314628466A
:10431000FFF72CFBC4F8A800F0BD000000640040CB
:10432000C84D002000680040F44D002090ED3D0A8B
:10433000BDEEC00A10EE101A090AD0F8A8201170BC
:1043400090ED3D0ABDEEC00A10EE101AD0F8A8207C
:104350005170704780ED3D0A7047000010B504466B
:10436000204600F0E9FC0446503000F0E5FC9FEDEB
:104370001F0A00F15C0480ED170A9FED1D0A80ED15
:10438000180A4FF400502081400060810020E06056
:104390002061A082E08220836083A083206260622B
:1043A00084F828009FED130A84ED0B0A9FED110A93
:1043B00084ED0C0A9FED0F0A84ED0D0A84F8380095
:1043C000032084F839009FED0B0A84ED0F0A9FED5E
:1043D000090A84ED100A9FED070A84ED110A9FED8A
:1043E000050A84ED120AAC3C204610BD2CA0994170
:1043F0000000804600000000014691F9410070472E
:1044000070B59AB00446002506E0206800F5827079
:10441000405D01A948556D1C206800F58270405D23
:104420003D2805D0206800F58270405D0028ECD161
:10443000002001A9485500260FE06422A06802FB75
:10444000060101A8FCF790F830B970B284F8410079
:10445000681CC0B21AB070BD761C2079B042ECDC8A
:10446000FF2084F84100681CC0B2F3E770B5044631
:104470000E462046FFF7C4FF05462946204600F0B9
:1044800001F870BD2DE9F0412DED048B04460E4678
:104490000027012008EE100A9FED300A84ED110A72
:1044A00094F94100401C18B9BDEC048BBDE8F081C3
:1044B000206800F58270805D2D2804D14FF0FF3018
:1044C00008EE100A761C354619E0206800F5827067
:1044D000405D2E2801D12F4610E0206800F5827043
:1044E000405D303800EE100AB8EEC00AD4ED110A73
:1044F000B2EE041A00EE810A84ED110A6D1C2068E8
:1045000000F58270405D232805D0206800F5827098
:10451000405D0028D9D1B7B1F2EE048AE81B00EE65
:10452000100AB8EEC00AF7EE000A30EE609AF0EE1C
:10453000490AB0EE680A00F07BFCD4ED110A80EE67
:10454000801A84ED111A94ED110AF8EEC80A20EED3
:10455000200A84ED110A00BFA6E700000000000059
:10456000F0B5DDE905541F4F0E68BE4202D11E4E64
:1045700006602FE01D4F0E68BE4202D11C4E066041
:1045800028E01C4F0E68BE4202D11B4E066021E09F
:104590001A4F0E68BE4202D1194E06601AE0194F3A
:1045A0000E68BE4202D1184E066013E0174F0E6827
:1045B000BE4202D1164E06600CE0164F0E68BE4297
:1045C00002D1154E066005E0144F0E68BE4201D1BF
:1045D000134E06600271836005734473066834717C
:1045E000F0BD000000100140204E002000440040BB
:1045F0002C5000200048004038520020004C004061
:104600004454002000500040505600200014014047
:104610005C58002000780040685A0020007C004070
:10462000745C00202DE9F8430446206800F1200561
:10463000287800F00F00A17901F00F01884201D025
:10464000BDE8F8836946681CFFF79EFAE878000128
:10465000297940EA21176879297901F00F0140EAA8
:1046600001282878000984F82C00BDF80010606C3F
:104670000E1A16F5004F03DAE06C401CE06405E00A
:10468000B6F5004F02DDE06C401EE0644C20005B9C
:10469000BDF8001001EB0040A0F5FE40FF38A0641B
:1046A00094ED120AF8EEC00A9FED221A80EE810AFC
:1046B000D4ED020A20EE200AF0EE000A20EE200AD5
:1046C00084ED0C0A94ED030AF0EE400A9FED1A0AFD
:1046D00040F6FF7251103846FFF797F984ED0D0A46
:1046E00094ED040AF0EE400A9FED130A40F6FF72C3
:1046F00051104046FFF789F984ED0E0AA87900EEC3
:10470000100AB8EE400ADFED0D0A30EE200A84ED03
:104710000F0AE87900EE100AB8EE400ADFED070A4A
:1047200030EE200A84ED100ABDF80010616400BF6D
:1047300086E7000000FF7F470000000033938843B6
:1047400010B50446E188226808231068014AFFF783
:10475000F5F810BD1403002070B504460D46A0699D
:10476000401CA0612046FFF75DFF70BD10B50446F8
:10477000E188226808231068014AFFF7DFF810BDBE
:104780000C03002010B5044694F82C0001284BD1EE
:1047900094ED021AF0EE410A94ED021AB1EE411ABC
:1047A000B0EE410A04F1540002F016FF94ED031A32
:1047B000F0EE410A94ED031AB1EE411AB0EE410A4F
:1047C00004F1580002F008FF94ED041AF0EE410ADB
:1047D00094ED041AB1EE411AB0EE410A04F15C0006
:1047E00002F0FAFE94ED051AF0EE410A94ED051A76
:1047F000B1EE411AB0EE410A04F1600002F0ECFEA5
:10480000DFED0F0A9FED0F0A04F1640002F0E4FEF1
:10481000F1EE040A9FED0B0A04F1680002F0DCFEE1
:10482000204600F061F809E094F82C0018B9204601
:10483000FFF786FF02E02046FFF798FF10BD00005B
:104840000000FA430000000010B50446D4E9060158
:10485000884203D1002084F8280002E0012084F877
:104860002800A069E06194F8280010B92046FFF7FD
:1048700067FF10BD70B5049C174E0D68B54202D19C
:10488000164D056005E0164E0D68B54201D1154D77
:104890000560828034B1012C06D0022C08D0032C94
:1048A0000ED109E0C3800BE003F58075C58007E0F9
:1048B00003F50075C58003E003F54075C58000BFB2
:1048C00000BF80F8504080ED020AC0ED030A80ED81
:1048D000041AC0ED051A70BD00640040C84D0020E8
:1048E00000680040F44D00202DE9F843044694F898
:1048F000500030B1012878D0022875D0032871D13A
:104900008DE004F12005D4ED020AB0EE601AD4ED7A
:10491000150AB0EE600A4FF6FF714810DFED540A39
:10492000FFF75AF880B20090D4ED030AB0EE601A97
:10493000D4ED160AB0EE600A40F6FF714810DFEDC4
:104940004C0AFFF749F886B2D4ED040AB0EE601ABB
:10495000D4ED170AB0EE600A40F6FF714810DFEDA3
:10496000440AFFF739F887B2D4ED190AB0EE600AAD
:1049700040F6FF7100209FED3F1ADFED3D0AFFF783
:104980002BF81FFA80F8D4ED1A0AB0EE600A40F650
:10499000FF710020B1EE041ADFED350AFFF71CF8B5
:1049A0001FFA80F900216846FFF7EEF82880C6F369
:1049B0000710A8703007000E40EA2820E87085F83C
:1049C0000480C9F3071068714FEA0970000E40EACD
:1049D0002720A871EF71E1882268082310682A4611
:1049E000FEF7ACFF41E000E00DE004F12005606D52
:1049F0002860A06D6860E1882268082310682A4654
:104A0000FEF79CFF31E004F12005A06D2860E188ED
:104A10002268042310682A46FEF790FF25E004F17F
:104A20002005606D286094ED160ADFED130A20EE74
:104A3000200ABCEEC00A10EE100AA880D4ED180AB5
:104A400094ED051A80EE810ADFED0C0A20EE200AB3
:104A5000BCEEC00A10EE100AE880E1882268082344
:104A600010682A46FEF76AFF00BF00BFBDE8F88362
:104A7000000000000000FA430000C84200401C464D
:104A800080ED110A7047000010B52DED0A8B044629
:104A90009FED990AF0EE409A9FED970AB0EE40AA7A
:104AA0009FED950AF0EE40AA9FED930AB0EE40BA52
:104AB00094ED110AD4ED120A30EE600AF0EE408A4D
:104AC000B0EE680A02F0A0FDB0EE408A94ED010A53
:104AD000B4EEC80AF1EE10FA0BDD94ED120A84ED83
:104AE000110A9FED850AF0EE408A9FED830AB0EE31
:104AF000408A94ED080A20EE280AF0EE409A94EDE0
:104B00000E0AB5EEC00AF1EE10FA09D194ED0E0AC4
:104B1000B5EEC00AF1EE10FA02D1B7EE009A32E01B
:104B200094ED0F0AB4EEC80AF1EE10FA02DBB7EE0C
:104B3000009A1DE094ED0F0AB4EEC80AF1EE10FAE7
:104B400016D294ED0E0AD4ED0F0A30EE200AB4EE20
:104B5000C80AF1EE10FA0BDD94ED0E0AD4ED0F0A3F
:104B600030EE200A30EE480AD4ED0E0A80EE209A8C
:104B700094ED0F0AB4EEC80AF1EE10FA03D89FEDD7
:104B80005E0AB0EE409A94ED0C0AB5EEC00AF1EE62
:104B900010FA19D094ED0C0AD4ED090A80EE201A0F
:104BA000F0EE41BA94ED0C0AB1EE400AD4ED090AD8
:104BB00080EE201AB0EE41CAF0EE6B0AB0EE4C0A5D
:104BC00004F14C0002F008FD94ED100AB5EEC00AA5
:104BD000F1EE10FA12D194ED130AD4ED000A60EE52
:104BE000890A00EEA80A84ED130A94ED090AD4EDAF
:104BF000130A20EE200AB0EE40AA21E094ED100A3C
:104C0000B4EEC80AF1EE10FA12DD94ED130AD4EDF9
:104C1000000A60EE890A00EEA80A84ED130A94EDFA
:104C2000090AD4ED130A20EE200AB0EE40AA07E0EC
:104C30009FED310A84ED130A9FED2F0AB0EE40AAD2
:104C4000207A70B994ED0A0AD4ED060A78EEE00AEB
:104C500020EE200AD4ED000A80EE201AF0EE41AAE0
:104C60000FE094ED070AD4ED050A30EE600AD4EDAA
:104C70000A0A20EE200AD4ED000A80EE201AF0EE97
:104C800041AA94ED110AD4ED040A30EE600AD4ED85
:104C90000B0A20EE200AB0EE40BA39EE8A0A30EE56
:104CA0002A0A30EE0B0A84ED070A94ED0D0AB5EEE0
:104CB000C00AF1EE10FA0DD094ED0D1AF0EE410A93
:104CC00094ED0D1AB1EE411AB0EE410A04F11C0048
:104CD00002F082FC94ED120A84ED030A94ED110AAD
:104CE00084ED040A94ED070A84ED050AC4ED068AF2
:104CF000BDEC0A8B10BD00000000000080ED080A2A
:104D0000C0ED090A80ED0A1AC0ED0B1A80ED0C2ADD
:104D1000C0ED0D2A80ED003AC0ED013A80ED0E4A5B
:104D2000C0ED0F4A80ED105A0172704790ED070AEE
:104D3000704780ED120A70479FED220A80ED030A4A
:104D40009FED200A80ED040A9FED1E0A80ED050A02
:104D50009FED1C0A80ED060A9FED1A0A80ED070AF6
:104D60009FED180A80ED080A9FED160A80ED090AEA
:104D70009FED140A80ED0A0A9FED120A80ED0B0ADE
:104D80009FED100A80ED0C0A9FED0E0A80ED0D0AD2
:104D90009FED0C0A80ED0E0A9FED0A0A80ED0F0AC6
:104DA0009FED080A80ED100A9FED060A80ED110ABA
:104DB0009FED040A80ED120A9FED020A80ED130AAE
:104DC00070470000000000004100080218BF0420E6
:104DD0000A0E18BF40F001004FF07F4232EA010195
:104DE00008BF40F00200012808BF052070470000FE
:104DF00002480068C0F30220704700000CED00E09C
:104E000010B5002804DB0A07130E054A135406E008
:104E10000A07140E034A00F00F031B1FD45410BDE1
:104E200000E400E018ED00E0EFF3058070470000BB
:104E300010B510EE100A2DED068BB7EE001A10EE2D
:104E4000901AB0EE418A0022A0F5000CDFEDFE9A28
:104E50004FF00073BCF1FE4F4FF07F4403EB410C69
:104E600080F0B481BCF1804FC0F02082F74901444A
:104E70009FEDF73AB1F5005F40F2D48200F5802152
:104E8000CB0C03F00F0101EE901AC3F307137F3B25
:104E9000A0EBC350B8EEE12A00EE100A1A44DFED91
:104EA000ED2AF0EE411A42EE221AF0EE613A70EE6F
:104EB000232A30EE632A12EE900A00F500606FF3A9
:104EC0000B0001EE900A73EEE13A33EE804AC1EE38
:104ED000223A22EE230A10EE100A00F500606FF36A
:104EE0000B0000EE100A00EE612A00EE442A62EE8A
:104EF000232A70EE221A21EEA12ADFEDD73A02EE24
:104F0000233A23EE023A20EE012A22EE811A03EE22
:104F1000211A32EE010A10EE100A00F500606FF35C
:104F20000B0000EE100A72EE401A31EE812A9FED5E
:104F3000CB1A60EE011A9FEDCA1A20EE011A9FEDFE
:104F4000C90A02EE001A31EE810A10EE100A00F5CD
:104F500000606FF30B0000EE100AC34871EEC01A38
:104F600031EE812A784400EBC10090ED003AD0ED9B
:104F7000011A100101EE100AF8EEC12A32EE211AD0
:104F800031EE001A31EE031A31EE221A11EE100A38
:104F900000F500606FF30B0009EE100A39EE621A9B
:104FA00031EE431A31EE400A30EE610A32EE40AA89
:104FB00010EE900A002100F500606FF30B0008EE80
:104FC000900A084670EEE8AA4FF0000029EE280A81
:104FD00000F00C01F0EEC00A10EE900AB0F18B4F19
:104FE0000DDD10EE900AB4EB400F08D310EE100A5E
:104FF0004FF08B4262F31E0008EE900A13E069EE58
:105000002A0A38EEAA1A4AEE010A30EE201A11EEE8
:10501000100A00F500606FF30B0008EE900A30EE06
:10502000680A70EE209A0C204FF0000038EEA90AB2
:10503000B5EEC00AF1EE10FA34BFFEEE000AF6EE4D
:10504000000A30EE800ABDEEC00A10EE100A01110F
:1050500000EE101AF8EEC00A00EE100AB8EEC00A10
:1050600038EEC00A30EE290ADFED801A9FED801A73
:1050700000EE211ADFED7F1A7F4900F00F0040EEAD
:10508000011A21EE800A794401EB800191ED001AAA
:105090007A49794401EB8001D1ED001A784901EE9B
:1050A000801A794401EB8000764990ED000A31EED8
:1050B000001AB0EEE00A10EE100A884215DA10EE7F
:1050C000100AB4EB400F10D39FED6F0A30EE800A48
:1050D000DFED6E0A20EE200A68EE010ABDEC068BB9
:1050E000BCEEC00A20EE200A10BD10EE100A68497E
:1050F000884243DA10EE100AB4EB400F3ED3BDEE07
:10510000E00A68EE010A10EE100A00EBD0725110AE
:10511000C90501F17E5100EE101AA0EB6200C00536
:1051200060EE200A00F17E5000EE100A60EE808AE8
:1051300018EE900AB4EB400F0FD10220FBF76FFA84
:1051400000F0BEF910EE101A18EE100ABDEC068B36
:1051500061F31E0000EE100A10BD18EE900A400028
:1051600011D018EE900AFFF72FFE042808BF00F0B8
:10517000AFF9B0EE680ABDEC068B10BDF5EEC00AC3
:10518000F1EE10FA0FD20220FBF749FA00F0A0F975
:1051900010EE101A18EE100ABDEC068B61F31E001B
:1051A00000EE100A10BD0220FBF739FA00F088F972
:1051B00010EE101AB0EE480A10EE100ABDEC068B85
:1051C00061F31E0000EE100A10BD00BFBCF1804F5D
:1051D0006CD300BF00F1FF43B3F1FE4F24D200BFF8
:1051E000B0EEC00A10EE100AC1F3C7537F2B0DDBDF
:1051F000972BBFF63BAEC3F196034FF0010C0CFAB0
:1052000003F3A3F1010C1CEA010F08D00120FBF706
:1052100006FABDEC068BBDE8104000F049B90B4220
:1052200018BFBFEE008A21E643001CBF4FF0807319
:10523000B3EB400F34D96FF01A02DFED161A20EEEF
:10524000210A10EE100A27E000000000001080C0C4
:10525000ABAAAA3E0000803D7EE24C3E00B0384240
:10526000D49AB8BB3BAA38422C270000FC596337BC
:10527000C9FF753A1872313DCA260000FE260000AB
:105280006E2600000000FC420000FE420000004BC1
:10529000000040430000004D10F0004FA0D1E5E5B4
:1052A000A0F50003B3F1FE4F21D2DFE503EB41038C
:1052B000B3F1007F11D3F5EEC00AF1EE10FA05D17B
:1052C000430018BFB4EB400F76D883E701F00041EC
:1052D00041F0FC5100EE901A7CE7B3F1807F06D2DA
:1052E00010EE903AA3F5000300EE903A72E720F03A
:1052F00000426FF0FF4C604C02EB0C03A34210D352
:1053000021F000439C44A4450BD3B0F17E5F18BF4D
:105310005FEA410C50D0B2F1FF4F98BFB3F1FF4F9D
:1053200005D9BDEC068BBDE8104000F0BDB8B0F16A
:10533000FF4F0FD0C1F3C7527F2A09DB972A11DA3A
:10534000C2F19602012303FA02F2531E0B4205D06A
:10535000002208E011F0004F55D128E00A4218BFA2
:10536000012200D1022210F5000F13D028B3B0F1B2
:10537000004F26D010F1814F4FD04FF0FE42B2EBDC
:10538000400F94BF01200020012202EBE17188420E
:1053900039D10CE011F0004F02D0012A38D032E0B0
:1053A000012A02BF9FED350ABDEC068B10BD9FEDB3
:1053B000340ABDEC068B10BD2FE011F0004F0CD16C
:1053C00021E0B1F1FF4F1ED011F5000F05D011F013
:1053D000004F15D00AB1012A08D00220FBF71FF9AF
:1053E000BDEC068BBDE8104000F054B80220FBF77E
:1053F00016F900F04FF8BDEC068BB1EE400A10BD77
:105400000AB1012A04D0B0EE690ABDEC068B10BDCA
:10541000BDEC068B9FED1B0A10BDBDEC068BB7EEF5
:10542000000A10BD30EE410AB5EE001A9FED172AB2
:1054300000EE413AB6EE001A60EE001A00EE431A92
:1054400061EEC11A9FED101A20EE011A20EE020A39
:105450009FED0F2A01EE820A71EE001A11EE900AFA
:1054600000F500606FF30B0009EE100A31EE491AE7
:1054700031EE00AA9CE50000FFFF3F00000080FF26
:105480000000807F0000008000B0B841D49A38BB93
:105490003BAAB841DFED030AB7EE001A81EE200AFD
:1054A000704700000000000030EE200A7047000046
:1054B000DFED020A80EEA00A704700000000000045
:1054C0009FED020A20EE000A704700000000007005
:1054D0009FED020A20EE000A704700000000001055
:1054E000104800218161C16180F8281080F85010B7
:1054F0009FED0D0A80ED150A9FED0B0A80ED160A4F
:105500009FED090A80ED170A9FED070A80ED180A42
:105510009FED050A80ED190A9FED030A80ED1A0A36
:1055200070470000785F00200000000010B50248BE
:10553000FEF714FF10BD0000805E0020054800212A
:1055400080F8401080F841109FED030A80ED110AA9
:105550007047000034030020000000001CB5FCF779
:105560003FFAFEF76BFAFDF785FDFDF743FDFDF70A
:105570001FFDFDF7CBFDDFED180A9FED170A0F2089
:10558000FEF746FB15491648FEF790FB64221549C5
:105590001548FEF7DDFCAB200621144B0A46CDE989
:1055A000001011491248FEF7DBFFFBF7FFF8FDF78B
:1055B000E7FC10491048FEF7BBFB01200F490870BB
:1055C00000F02EF8FDF73AFD00F040F802E0002070
:1055D000FCF7D2F8FBE7000000000000F93A0008F1
:1055E0007C030020AD3B0008A4030020180000202D
:1055F0003403002065390008AC04002000000020BE
:1056000070B50546FFF710FC10B16FF0050404E01B
:10561000002415B1284600F0FBFF204670BD0000B5
:1056200010B5FFF701FC10B16FF0050409E0064862
:10563000006820B9012004490860002401E04FF00F
:10564000FF34204610BD00001002002070B5FFF7A7
:10565000EBFB10B16FF005041FE011480068012852
:1056600019D100BF801F0021002804DB0A07130E98
:105670000C4A135406E00A07150E0B4A00F00F03FC
:105680001B1FD55400BF00BF02200549086001F070
:105690003BF8002401E04FF0FF34204670BD0000CD
:1056A0001002002000E400E018ED00E02DE9FF47C3
:1056B00080468946144600200390FFF7B5FB00287A
:1056C0004ED1B8F1000F4BD0802618258246471ED8
:1056D00044B3206808B1D4F800A0A06900B1A5695E
:1056E0002DB1382D03D8207900F0010018B1002029
:1056F00004B0BDE8F087606908B160698608A068F9
:1057000040B1E0685C2805D3206918B1606908B130
:10571000012708E0A06830B9E06820B9206910B915
:10572000002700E00027012F0CD12169A0684B461B
:105730003246CDE9005102905146404601F098FCB6
:1057400003900DE067B903A8B2B24B465146CDE9CC
:105750000050404601F05AFC012801D0002003907F
:105760000398C5E72DE9F04105460E46164807683F
:1057700016480068001D00F0C3FD681C38B936B13A
:1057800012480168091D124800F010FE1AE07C1949
:105790000E4800684460BC4207D20C480168091DED
:1057A0000C48006800F0E8FD0CE008480168091D9D
:1057B0000948006800F0E0FD08480068844201D212
:1057C00006480460BDE8F081D4010020C00100203B
:1057D000E4090020C8010020C4010020F0010020DD
:1057E00010B5044600F0EEFD24480068401C234933
:1057F00008602348006840B92148046008460068F2
:1058000001280DD100F0FCF90AE01E48006838B903
:105810001B480068C06AE16A884201D818480460E1
:1058200019480068401C1849086008460068606410
:105830001649E06A0968884202D91449E06A08609A
:10584000E16A01EB8101124A02EB8100211D00F0A7
:10585000ADFD00F0E1FD0B48006868B10848006844
:10586000C06AE16A884207D24FF080500949086057
:10587000BFF34F8FBFF36F8F10BD0000D00100202A
:10588000C0010020DC010020EC010020D801002034
:105890003405002004ED00E008B500F093FD124847
:1058A0000068E8B9114800F057FD114800F054FDB8
:1058B0000E48104908600E480F49086000200F4B41
:1058C0000F4A102100900A2001F098F8064908605C
:1058D0000846006820B10BA10348006800F05CFE98
:1058E00000F09AFD08BD000004020020F809002025
:1058F0000C0A0020FC01002000020020200A0020E9
:10590000700A0020546D72510000000010B516E0BE
:1059100000F058FD0C48C068C468201D00F0F0FC81
:105920000A480068401E0949086009480068401E8E
:105930000749086000F070FD204600F05FF8044859
:1059400000680028E4D110BDD0090020D00100205B
:10595000CC01002070B504460D46206C70B1216C5E
:10596000E0680144E160D4E90210884201D3216873
:10597000E1602846226CE168FAF781FD70BD2DE9EF
:10598000F04104460F4615464FF00008A66B206C08
:1059900048B9206800282CD1A06801F07FFC80461F
:1059A0000020A06025E07DB93946226C6068FAF7D6
:1059B00066FD216C606808446060D4E9010188429A
:1059C00017D32068606014E03946226CE068FAF76B
:1059D00056FD216CE068411AE1602168E068884268
:1059E00003D2216CA068411AE160022D01D106B1F9
:1059F000761E701CA0634046BDE8F08110B50446D9
:105A000094F8590030B9206B00F024FD204600F0D6
:105A100021FD1AE094F85900012803D1204600F036
:105A200019FD12E094F85900022801D1012000E08C
:105A3000002050B900BF502080F31188BFF34F8F72
:105A4000BFF36F8F00BF00BFFEE710BD0146084ADD
:105A5000126812680AB9012200E000220A600A688E
:105A600022B9034A1268D268106800E0002070472B
:105A7000FC01002030B54FF47053174800F00704C4
:105A80002CB1C01D20F00700134C041B1B1B024649
:105A9000124C22600024114D6C60D018083820F0A0
:105AA00007000F4C206000240D4D2D686C600C4DDC
:105AB0002D682C601146441A4C60094C24680C6017
:105AC000084D4C682C60084D4C682C604FF0004429
:105AD000064D2C6030BD0000C811002014020020CB
